{
  "_format": "hh-sol-artifact-1",
  "contractName": "CyberWorld",
  "sourceName": "contracts/Lock.sol",
  "abi": [
    {
      "inputs": [
        {
          "internalType": "string",
          "name": "_initialBaseURI",
          "type": "string"
        }
      ],
      "stateMutability": "nonpayable",
      "type": "constructor"
    },
    {
      "anonymous": false,
      "inputs": [
        {
          "indexed": true,
          "internalType": "address",
          "name": "owner",
          "type": "address"
        },
        {
          "indexed": true,
          "internalType": "address",
          "name": "approved",
          "type": "address"
        },
        {
          "indexed": true,
          "internalType": "uint256",
          "name": "tokenId",
          "type": "uint256"
        }
      ],
      "name": "Approval",
      "type": "event"
    },
    {
      "anonymous": false,
      "inputs": [
        {
          "indexed": true,
          "internalType": "address",
          "name": "owner",
          "type": "address"
        },
        {
          "indexed": true,
          "internalType": "address",
          "name": "operator",
          "type": "address"
        },
        {
          "indexed": false,
          "internalType": "bool",
          "name": "approved",
          "type": "bool"
        }
      ],
      "name": "ApprovalForAll",
      "type": "event"
    },
    {
      "anonymous": false,
      "inputs": [
        {
          "indexed": false,
          "internalType": "address",
          "name": "owner",
          "type": "address"
        },
        {
          "indexed": false,
          "internalType": "uint8",
          "name": "classId",
          "type": "uint8"
        }
      ],
      "name": "CharacterCreated",
      "type": "event"
    },
    {
      "anonymous": false,
      "inputs": [
        {
          "indexed": false,
          "internalType": "address",
          "name": "owner",
          "type": "address"
        },
        {
          "indexed": false,
          "internalType": "uint8",
          "name": "classId",
          "type": "uint8"
        }
      ],
      "name": "CharacterUpgraded",
      "type": "event"
    },
    {
      "anonymous": false,
      "inputs": [
        {
          "indexed": true,
          "internalType": "address",
          "name": "previousOwner",
          "type": "address"
        },
        {
          "indexed": true,
          "internalType": "address",
          "name": "newOwner",
          "type": "address"
        }
      ],
      "name": "OwnershipTransferred",
      "type": "event"
    },
    {
      "anonymous": false,
      "inputs": [
        {
          "indexed": true,
          "internalType": "address",
          "name": "from",
          "type": "address"
        },
        {
          "indexed": true,
          "internalType": "address",
          "name": "to",
          "type": "address"
        },
        {
          "indexed": true,
          "internalType": "uint256",
          "name": "tokenId",
          "type": "uint256"
        }
      ],
      "name": "Transfer",
      "type": "event"
    },
    {
      "inputs": [
        {
          "internalType": "address",
          "name": "to",
          "type": "address"
        },
        {
          "internalType": "uint256",
          "name": "tokenId",
          "type": "uint256"
        }
      ],
      "name": "approve",
      "outputs": [],
      "stateMutability": "nonpayable",
      "type": "function"
    },
    {
      "inputs": [
        {
          "internalType": "address",
          "name": "owner",
          "type": "address"
        }
      ],
      "name": "balanceOf",
      "outputs": [
        {
          "internalType": "uint256",
          "name": "",
          "type": "uint256"
        }
      ],
      "stateMutability": "view",
      "type": "function"
    },
    {
      "inputs": [
        {
          "internalType": "uint256",
          "name": "",
          "type": "uint256"
        }
      ],
      "name": "characters",
      "outputs": [
        {
          "internalType": "uint8",
          "name": "classId",
          "type": "uint8"
        },
        {
          "internalType": "uint256",
          "name": "level",
          "type": "uint256"
        }
      ],
      "stateMutability": "view",
      "type": "function"
    },
    {
      "inputs": [
        {
          "internalType": "enum CyberWorld.Classes",
          "name": "classId",
          "type": "uint8"
        }
      ],
      "name": "createNewCharacter",
      "outputs": [],
      "stateMutability": "payable",
      "type": "function"
    },
    {
      "inputs": [
        {
          "internalType": "uint256",
          "name": "tokenId",
          "type": "uint256"
        }
      ],
      "name": "getApproved",
      "outputs": [
        {
          "internalType": "address",
          "name": "",
          "type": "address"
        }
      ],
      "stateMutability": "view",
      "type": "function"
    },
    {
      "inputs": [
        {
          "internalType": "address",
          "name": "owner",
          "type": "address"
        },
        {
          "internalType": "address",
          "name": "operator",
          "type": "address"
        }
      ],
      "name": "isApprovedForAll",
      "outputs": [
        {
          "internalType": "bool",
          "name": "",
          "type": "bool"
        }
      ],
      "stateMutability": "view",
      "type": "function"
    },
    {
      "inputs": [],
      "name": "name",
      "outputs": [
        {
          "internalType": "string",
          "name": "",
          "type": "string"
        }
      ],
      "stateMutability": "view",
      "type": "function"
    },
    {
      "inputs": [],
      "name": "owner",
      "outputs": [
        {
          "internalType": "address",
          "name": "",
          "type": "address"
        }
      ],
      "stateMutability": "view",
      "type": "function"
    },
    {
      "inputs": [
        {
          "internalType": "uint256",
          "name": "tokenId",
          "type": "uint256"
        }
      ],
      "name": "ownerOf",
      "outputs": [
        {
          "internalType": "address",
          "name": "",
          "type": "address"
        }
      ],
      "stateMutability": "view",
      "type": "function"
    },
    {
      "inputs": [],
      "name": "renounceOwnership",
      "outputs": [],
      "stateMutability": "nonpayable",
      "type": "function"
    },
    {
      "inputs": [
        {
          "internalType": "address",
          "name": "from",
          "type": "address"
        },
        {
          "internalType": "address",
          "name": "to",
          "type": "address"
        },
        {
          "internalType": "uint256",
          "name": "tokenId",
          "type": "uint256"
        }
      ],
      "name": "safeTransferFrom",
      "outputs": [],
      "stateMutability": "nonpayable",
      "type": "function"
    },
    {
      "inputs": [
        {
          "internalType": "address",
          "name": "from",
          "type": "address"
        },
        {
          "internalType": "address",
          "name": "to",
          "type": "address"
        },
        {
          "internalType": "uint256",
          "name": "tokenId",
          "type": "uint256"
        },
        {
          "internalType": "bytes",
          "name": "data",
          "type": "bytes"
        }
      ],
      "name": "safeTransferFrom",
      "outputs": [],
      "stateMutability": "nonpayable",
      "type": "function"
    },
    {
      "inputs": [
        {
          "internalType": "address",
          "name": "operator",
          "type": "address"
        },
        {
          "internalType": "bool",
          "name": "approved",
          "type": "bool"
        }
      ],
      "name": "setApprovalForAll",
      "outputs": [],
      "stateMutability": "nonpayable",
      "type": "function"
    },
    {
      "inputs": [
        {
          "internalType": "string",
          "name": "_newBaseURI",
          "type": "string"
        }
      ],
      "name": "setBaseURI",
      "outputs": [],
      "stateMutability": "nonpayable",
      "type": "function"
    },
    {
      "inputs": [
        {
          "internalType": "bytes4",
          "name": "interfaceId",
          "type": "bytes4"
        }
      ],
      "name": "supportsInterface",
      "outputs": [
        {
          "internalType": "bool",
          "name": "",
          "type": "bool"
        }
      ],
      "stateMutability": "view",
      "type": "function"
    },
    {
      "inputs": [],
      "name": "symbol",
      "outputs": [
        {
          "internalType": "string",
          "name": "",
          "type": "string"
        }
      ],
      "stateMutability": "view",
      "type": "function"
    },
    {
      "inputs": [
        {
          "internalType": "uint256",
          "name": "index",
          "type": "uint256"
        }
      ],
      "name": "tokenByIndex",
      "outputs": [
        {
          "internalType": "uint256",
          "name": "",
          "type": "uint256"
        }
      ],
      "stateMutability": "view",
      "type": "function"
    },
    {
      "inputs": [
        {
          "internalType": "address",
          "name": "owner",
          "type": "address"
        },
        {
          "internalType": "uint256",
          "name": "index",
          "type": "uint256"
        }
      ],
      "name": "tokenOfOwnerByIndex",
      "outputs": [
        {
          "internalType": "uint256",
          "name": "",
          "type": "uint256"
        }
      ],
      "stateMutability": "view",
      "type": "function"
    },
    {
      "inputs": [
        {
          "internalType": "uint256",
          "name": "_tokenId",
          "type": "uint256"
        }
      ],
      "name": "tokenURI",
      "outputs": [
        {
          "internalType": "string",
          "name": "",
          "type": "string"
        }
      ],
      "stateMutability": "view",
      "type": "function"
    },
    {
      "inputs": [],
      "name": "totalSupply",
      "outputs": [
        {
          "internalType": "uint256",
          "name": "",
          "type": "uint256"
        }
      ],
      "stateMutability": "view",
      "type": "function"
    },
    {
      "inputs": [
        {
          "internalType": "address",
          "name": "from",
          "type": "address"
        },
        {
          "internalType": "address",
          "name": "to",
          "type": "address"
        },
        {
          "internalType": "uint256",
          "name": "tokenId",
          "type": "uint256"
        }
      ],
      "name": "transferFrom",
      "outputs": [],
      "stateMutability": "nonpayable",
      "type": "function"
    },
    {
      "inputs": [
        {
          "internalType": "address",
          "name": "newOwner",
          "type": "address"
        }
      ],
      "name": "transferOwnership",
      "outputs": [],
      "stateMutability": "nonpayable",
      "type": "function"
    },
    {
      "inputs": [
        {
          "internalType": "uint256",
          "name": "_tokenId",
          "type": "uint256"
        }
      ],
      "name": "upgradeCharacter",
      "outputs": [],
      "stateMutability": "payable",
      "type": "function"
    },
    {
      "inputs": [
        {
          "internalType": "address",
          "name": "_owner",
          "type": "address"
        }
      ],
      "name": "walletOfOwner",
      "outputs": [
        {
          "internalType": "uint256[]",
          "name": "",
          "type": "uint256[]"
        }
      ],
      "stateMutability": "view",
      "type": "function"
    }
  ],
  "bytecode": "0x60806040523480156200001157600080fd5b50604051620049ca380380620049ca833981810160405281019062000037919062000363565b6040518060400160405280600a81526020017f4379626572576f726c64000000000000000000000000000000000000000000008152506040518060400160405280600581526020017f43425752440000000000000000000000000000000000000000000000000000008152508160009081620000b49190620005ff565b508060019081620000c69190620005ff565b505050620000e9620000dd6200010260201b60201c565b6200010a60201b60201c565b80600b9081620000fa9190620005ff565b5050620006e6565b600033905090565b6000600a60009054906101000a900473ffffffffffffffffffffffffffffffffffffffff16905081600a60006101000a81548173ffffffffffffffffffffffffffffffffffffffff021916908373ffffffffffffffffffffffffffffffffffffffff1602179055508173ffffffffffffffffffffffffffffffffffffffff168173ffffffffffffffffffffffffffffffffffffffff167f8be0079c531659141344cd1fd0a4f28419497f9722a3daafe3b4186f6b6457e060405160405180910390a35050565b6000604051905090565b600080fd5b600080fd5b600080fd5b600080fd5b6000601f19601f8301169050919050565b7f4e487b7100000000000000000000000000000000000000000000000000000000600052604160045260246000fd5b6200023982620001ee565b810181811067ffffffffffffffff821117156200025b576200025a620001ff565b5b80604052505050565b600062000270620001d0565b90506200027e82826200022e565b919050565b600067ffffffffffffffff821115620002a157620002a0620001ff565b5b620002ac82620001ee565b9050602081019050919050565b60005b83811015620002d9578082015181840152602081019050620002bc565b60008484015250505050565b6000620002fc620002f68462000283565b62000264565b9050828152602081018484840111156200031b576200031a620001e9565b5b62000328848285620002b9565b509392505050565b600082601f830112620003485762000347620001e4565b5b81516200035a848260208601620002e5565b91505092915050565b6000602082840312156200037c576200037b620001da565b5b600082015167ffffffffffffffff8111156200039d576200039c620001df565b5b620003ab8482850162000330565b91505092915050565b600081519050919050565b7f4e487b7100000000000000000000000000000000000000000000000000000000600052602260045260246000fd5b600060028204905060018216806200040757607f821691505b6020821081036200041d576200041c620003bf565b5b50919050565b60008190508160005260206000209050919050565b60006020601f8301049050919050565b600082821b905092915050565b600060088302620004877fffffffffffffffffffffffffffffffffffffffffffffffffffffffffffffffff8262000448565b62000493868362000448565b95508019841693508086168417925050509392505050565b6000819050919050565b6000819050919050565b6000620004e0620004da620004d484620004ab565b620004b5565b620004ab565b9050919050565b6000819050919050565b620004fc83620004bf565b620005146200050b82620004e7565b84845462000455565b825550505050565b600090565b6200052b6200051c565b62000538818484620004f1565b505050565b5b8181101562000560576200055460008262000521565b6001810190506200053e565b5050565b601f821115620005af57620005798162000423565b620005848462000438565b8101602085101562000594578190505b620005ac620005a38562000438565b8301826200053d565b50505b505050565b600082821c905092915050565b6000620005d460001984600802620005b4565b1980831691505092915050565b6000620005ef8383620005c1565b9150826002028217905092915050565b6200060a82620003b4565b67ffffffffffffffff811115620006265762000625620001ff565b5b620006328254620003ee565b6200063f82828562000564565b600060209050601f83116001811462000677576000841562000662578287015190505b6200066e8582620005e1565b865550620006de565b601f198416620006878662000423565b60005b82811015620006b1578489015182556001820191506020850194506020810190506200068a565b86831015620006d15784890151620006cd601f891682620005c1565b8355505b6001600288020188555050505b505050505050565b6142d480620006f66000396000f3fe60806040526004361061014b5760003560e01c806355f804b3116100b6578063a22cb4651161006f578063a22cb465146104bc578063b88d4fde146104e5578063c87b56dd1461050e578063cf3df5271461054b578063e985e9c514610567578063f2fde38b146105a45761014b565b806355f804b3146103ac5780636352211e146103d557806370a0823114610412578063715018a61461044f5780638da5cb5b1461046657806395d89b41146104915761014b565b806323b872dd1161010857806323b872dd146102655780632f745c591461028e57806342842e0e146102cb578063438b6300146102f45780634810bc59146103315780634f6ccce71461036f5761014b565b806301ffc9a714610150578063046516481461018d57806306fdde03146101a9578063081812fc146101d4578063095ea7b31461021157806318160ddd1461023a575b600080fd5b34801561015c57600080fd5b50610177600480360381019061017291906128b0565b6105cd565b60405161018491906128f8565b60405180910390f35b6101a760048036038101906101a29190612938565b610647565b005b3480156101b557600080fd5b506101be610771565b6040516101cb91906129f5565b60405180910390f35b3480156101e057600080fd5b506101fb60048036038101906101f69190612a4d565b610803565b6040516102089190612abb565b60405180910390f35b34801561021d57600080fd5b5061023860048036038101906102339190612b02565b610849565b005b34801561024657600080fd5b5061024f610960565b60405161025c9190612b51565b60405180910390f35b34801561027157600080fd5b5061028c60048036038101906102879190612b6c565b61096d565b005b34801561029a57600080fd5b506102b560048036038101906102b09190612b02565b6109cd565b6040516102c29190612b51565b60405180910390f35b3480156102d757600080fd5b506102f260048036038101906102ed9190612b6c565b610a72565b005b34801561030057600080fd5b5061031b60048036038101906103169190612bbf565b610a92565b6040516103289190612caa565b60405180910390f35b34801561033d57600080fd5b5061035860048036038101906103539190612a4d565b610b40565b604051610366929190612ce8565b60405180910390f35b34801561037b57600080fd5b5061039660048036038101906103919190612a4d565b610b71565b6040516103a39190612b51565b60405180910390f35b3480156103b857600080fd5b506103d360048036038101906103ce9190612e46565b610be2565b005b3480156103e157600080fd5b506103fc60048036038101906103f79190612a4d565b610bfd565b6040516104099190612abb565b60405180910390f35b34801561041e57600080fd5b5061043960048036038101906104349190612bbf565b610c83565b6040516104469190612b51565b60405180910390f35b34801561045b57600080fd5b50610464610d3a565b005b34801561047257600080fd5b5061047b610d4e565b6040516104889190612abb565b60405180910390f35b34801561049d57600080fd5b506104a6610d78565b6040516104b391906129f5565b60405180910390f35b3480156104c857600080fd5b506104e360048036038101906104de9190612ebb565b610e0a565b005b3480156104f157600080fd5b5061050c60048036038101906105079190612f9c565b610e20565b005b34801561051a57600080fd5b5061053560048036038101906105309190612a4d565b610e82565b60405161054291906129f5565b60405180910390f35b61056560048036038101906105609190612a4d565b610f4c565b005b34801561057357600080fd5b5061058e6004803603810190610589919061301f565b6110c0565b60405161059b91906128f8565b60405180910390f35b3480156105b057600080fd5b506105cb60048036038101906105c69190612bbf565b611154565b005b60007f780e9d63000000000000000000000000000000000000000000000000000000007bffffffffffffffffffffffffffffffffffffffffffffffffffffffff1916827bffffffffffffffffffffffffffffffffffffffffffffffffffffffff19161480610640575061063f826111d7565b5b9050919050565b66038d7ea4c680003414610690576040517f08c379a0000000000000000000000000000000000000000000000000000000008152600401610687906130f7565b60405180910390fd5b600061069a610960565b9050600060405180604001604052808460028111156106bc576106bb613117565b5b60ff1681526020016001815250905080600c60006001856106dd9190613175565b815260200190815260200160002060008201518160000160006101000a81548160ff021916908360ff1602179055506020820151816001015590505061072f3360018461072a9190613175565b6112b9565b7f07a414b1bd89424c3ee4a6baff6a1a3a59791050c4d6017fa7c39fd8e0bcb8da3382600001516040516107649291906131a9565b60405180910390a1505050565b60606000805461078090613201565b80601f01602080910402602001604051908101604052809291908181526020018280546107ac90613201565b80156107f95780601f106107ce576101008083540402835291602001916107f9565b820191906000526020600020905b8154815290600101906020018083116107dc57829003601f168201915b5050505050905090565b600061080e826112d7565b6004600083815260200190815260200160002060009054906101000a900473ffffffffffffffffffffffffffffffffffffffff169050919050565b600061085482610bfd565b90508073ffffffffffffffffffffffffffffffffffffffff168373ffffffffffffffffffffffffffffffffffffffff16036108c4576040517f08c379a00000000000000000000000000000000000000000000000000000000081526004016108bb906132a4565b60405180910390fd5b8073ffffffffffffffffffffffffffffffffffffffff166108e3611322565b73ffffffffffffffffffffffffffffffffffffffff16148061091257506109118161090c611322565b6110c0565b5b610951576040517f08c379a000000000000000000000000000000000000000000000000000000000815260040161094890613336565b60405180910390fd5b61095b838361132a565b505050565b6000600880549050905090565b61097e610978611322565b826113e3565b6109bd576040517f08c379a00000000000000000000000000000000000000000000000000000000081526004016109b4906133c8565b60405180910390fd5b6109c8838383611478565b505050565b60006109d883610c83565b8210610a19576040517f08c379a0000000000000000000000000000000000000000000000000000000008152600401610a109061345a565b60405180910390fd5b600660008473ffffffffffffffffffffffffffffffffffffffff1673ffffffffffffffffffffffffffffffffffffffff168152602001908152602001600020600083815260200190815260200160002054905092915050565b610a8d83838360405180602001604052806000815250610e20565b505050565b60606000610a9f83610c83565b905060008167ffffffffffffffff811115610abd57610abc612d1b565b5b604051908082528060200260200182016040528015610aeb5781602001602082028036833780820191505090505b50905060005b82811015610b3557610b0385826109cd565b828281518110610b1657610b1561347a565b5b6020026020010181815250508080610b2d906134a9565b915050610af1565b508092505050919050565b600c6020528060005260406000206000915090508060000160009054906101000a900460ff16908060010154905082565b6000610b7b610960565b8210610bbc576040517f08c379a0000000000000000000000000000000000000000000000000000000008152600401610bb390613563565b60405180910390fd5b60088281548110610bd057610bcf61347a565b5b90600052602060002001549050919050565b610bea611771565b80600b9081610bf9919061372f565b5050565b600080610c09836117ef565b9050600073ffffffffffffffffffffffffffffffffffffffff168173ffffffffffffffffffffffffffffffffffffffff1603610c7a576040517f08c379a0000000000000000000000000000000000000000000000000000000008152600401610c719061384d565b60405180910390fd5b80915050919050565b60008073ffffffffffffffffffffffffffffffffffffffff168273ffffffffffffffffffffffffffffffffffffffff1603610cf3576040517f08c379a0000000000000000000000000000000000000000000000000000000008152600401610cea906138df565b60405180910390fd5b600360008373ffffffffffffffffffffffffffffffffffffffff1673ffffffffffffffffffffffffffffffffffffffff168152602001908152602001600020549050919050565b610d42611771565b610d4c600061182c565b565b6000600a60009054906101000a900473ffffffffffffffffffffffffffffffffffffffff16905090565b606060018054610d8790613201565b80601f0160208091040260200160405190810160405280929190818152602001828054610db390613201565b8015610e005780601f10610dd557610100808354040283529160200191610e00565b820191906000526020600020905b815481529060010190602001808311610de357829003601f168201915b5050505050905090565b610e1c610e15611322565b83836118f2565b5050565b610e31610e2b611322565b836113e3565b610e70576040517f08c379a0000000000000000000000000000000000000000000000000000000008152600401610e67906133c8565b60405180910390fd5b610e7c84848484611a5e565b50505050565b6060610e8d82611aba565b610ecc576040517f08c379a0000000000000000000000000000000000000000000000000000000008152600401610ec390613971565b60405180910390fd5b6000600c60008481526020019081526020016000206040518060400160405290816000820160009054906101000a900460ff1660ff1660ff16815260200160018201548152505090506001816020015103610f3657610f2e8160000151611afb565b915050610f47565b610f438160000151611b38565b9150505b919050565b610f5581610bfd565b73ffffffffffffffffffffffffffffffffffffffff163373ffffffffffffffffffffffffffffffffffffffff1614610fc2576040517f08c379a0000000000000000000000000000000000000000000000000000000008152600401610fb990613a03565b60405180910390fd5b6601c6bf52634000341461100b576040517f08c379a000000000000000000000000000000000000000000000000000000000815260040161100290613abb565b60405180910390fd5b6000600c600083815260200190815260200160002090506001816001015414611069576040517f08c379a000000000000000000000000000000000000000000000000000000000815260040161106090613b4d565b60405180910390fd5b600281600101819055507e71b4fbc98c82957c8e29f173c720e5d4eba2badcd4e5fc67656e08c488c604338260000160009054906101000a900460ff166040516110b49291906131a9565b60405180910390a15050565b6000600560008473ffffffffffffffffffffffffffffffffffffffff1673ffffffffffffffffffffffffffffffffffffffff16815260200190815260200160002060008373ffffffffffffffffffffffffffffffffffffffff1673ffffffffffffffffffffffffffffffffffffffff16815260200190815260200160002060009054906101000a900460ff16905092915050565b61115c611771565b600073ffffffffffffffffffffffffffffffffffffffff168173ffffffffffffffffffffffffffffffffffffffff16036111cb576040517f08c379a00000000000000000000000000000000000000000000000000000000081526004016111c290613bdf565b60405180910390fd5b6111d48161182c565b50565b60007f80ac58cd000000000000000000000000000000000000000000000000000000007bffffffffffffffffffffffffffffffffffffffffffffffffffffffff1916827bffffffffffffffffffffffffffffffffffffffffffffffffffffffff191614806112a257507f5b5e139f000000000000000000000000000000000000000000000000000000007bffffffffffffffffffffffffffffffffffffffffffffffffffffffff1916827bffffffffffffffffffffffffffffffffffffffffffffffffffffffff1916145b806112b257506112b182611b75565b5b9050919050565b6112d3828260405180602001604052806000815250611bdf565b5050565b6112e081611aba565b61131f576040517f08c379a00000000000000000000000000000000000000000000000000000000081526004016113169061384d565b60405180910390fd5b50565b600033905090565b816004600083815260200190815260200160002060006101000a81548173ffffffffffffffffffffffffffffffffffffffff021916908373ffffffffffffffffffffffffffffffffffffffff160217905550808273ffffffffffffffffffffffffffffffffffffffff1661139d83610bfd565b73ffffffffffffffffffffffffffffffffffffffff167f8c5be1e5ebec7d5bd14f71427d1e84f3dd0314c0f7b2291e5b200ac8c7c3b92560405160405180910390a45050565b6000806113ef83610bfd565b90508073ffffffffffffffffffffffffffffffffffffffff168473ffffffffffffffffffffffffffffffffffffffff161480611431575061143081856110c0565b5b8061146f57508373ffffffffffffffffffffffffffffffffffffffff1661145784610803565b73ffffffffffffffffffffffffffffffffffffffff16145b91505092915050565b8273ffffffffffffffffffffffffffffffffffffffff1661149882610bfd565b73ffffffffffffffffffffffffffffffffffffffff16146114ee576040517f08c379a00000000000000000000000000000000000000000000000000000000081526004016114e590613c71565b60405180910390fd5b600073ffffffffffffffffffffffffffffffffffffffff168273ffffffffffffffffffffffffffffffffffffffff160361155d576040517f08c379a000000000000000000000000000000000000000000000000000000000815260040161155490613d03565b60405180910390fd5b61156a8383836001611c3a565b8273ffffffffffffffffffffffffffffffffffffffff1661158a82610bfd565b73ffffffffffffffffffffffffffffffffffffffff16146115e0576040517f08c379a00000000000000000000000000000000000000000000000000000000081526004016115d790613c71565b60405180910390fd5b6004600082815260200190815260200160002060006101000a81549073ffffffffffffffffffffffffffffffffffffffff02191690556001600360008573ffffffffffffffffffffffffffffffffffffffff1673ffffffffffffffffffffffffffffffffffffffff168152602001908152602001600020600082825403925050819055506001600360008473ffffffffffffffffffffffffffffffffffffffff1673ffffffffffffffffffffffffffffffffffffffff16815260200190815260200160002060008282540192505081905550816002600083815260200190815260200160002060006101000a81548173ffffffffffffffffffffffffffffffffffffffff021916908373ffffffffffffffffffffffffffffffffffffffff160217905550808273ffffffffffffffffffffffffffffffffffffffff168473ffffffffffffffffffffffffffffffffffffffff167fddf252ad1be2c89b69c2b068fc378daa952ba7f163c4a11628f55a4df523b3ef60405160405180910390a461176c8383836001611d98565b505050565b611779611322565b73ffffffffffffffffffffffffffffffffffffffff16611797610d4e565b73ffffffffffffffffffffffffffffffffffffffff16146117ed576040517f08c379a00000000000000000000000000000000000000000000000000000000081526004016117e490613d6f565b60405180910390fd5b565b60006002600083815260200190815260200160002060009054906101000a900473ffffffffffffffffffffffffffffffffffffffff169050919050565b6000600a60009054906101000a900473ffffffffffffffffffffffffffffffffffffffff16905081600a60006101000a81548173ffffffffffffffffffffffffffffffffffffffff021916908373ffffffffffffffffffffffffffffffffffffffff1602179055508173ffffffffffffffffffffffffffffffffffffffff168173ffffffffffffffffffffffffffffffffffffffff167f8be0079c531659141344cd1fd0a4f28419497f9722a3daafe3b4186f6b6457e060405160405180910390a35050565b8173ffffffffffffffffffffffffffffffffffffffff168373ffffffffffffffffffffffffffffffffffffffff1603611960576040517f08c379a000000000000000000000000000000000000000000000000000000000815260040161195790613ddb565b60405180910390fd5b80600560008573ffffffffffffffffffffffffffffffffffffffff1673ffffffffffffffffffffffffffffffffffffffff16815260200190815260200160002060008473ffffffffffffffffffffffffffffffffffffffff1673ffffffffffffffffffffffffffffffffffffffff16815260200190815260200160002060006101000a81548160ff0219169083151502179055508173ffffffffffffffffffffffffffffffffffffffff168373ffffffffffffffffffffffffffffffffffffffff167f17307eab39ab6107e8899845ad3d59bd9653f200f220920489ca2b5937696c3183604051611a5191906128f8565b60405180910390a3505050565b611a69848484611478565b611a7584848484611d9e565b611ab4576040517f08c379a0000000000000000000000000000000000000000000000000000000008152600401611aab90613e6d565b60405180910390fd5b50505050565b60008073ffffffffffffffffffffffffffffffffffffffff16611adc836117ef565b73ffffffffffffffffffffffffffffffffffffffff1614159050919050565b6060611b05611f25565b611b118360ff16611fb7565b604051602001611b22929190613f15565b6040516020818303038152906040529050919050565b6060611b42611f25565b611b4e8360ff16611fb7565b604051602001611b5f929190613f7d565b6040516020818303038152906040529050919050565b60007f01ffc9a7000000000000000000000000000000000000000000000000000000007bffffffffffffffffffffffffffffffffffffffffffffffffffffffff1916827bffffffffffffffffffffffffffffffffffffffffffffffffffffffff1916149050919050565b611be98383612085565b611bf66000848484611d9e565b611c35576040517f08c379a0000000000000000000000000000000000000000000000000000000008152600401611c2c90613e6d565b60405180910390fd5b505050565b611c46848484846122a2565b6001811115611c8a576040517f08c379a0000000000000000000000000000000000000000000000000000000008152600401611c8190614031565b60405180910390fd5b6000829050600073ffffffffffffffffffffffffffffffffffffffff168573ffffffffffffffffffffffffffffffffffffffff1603611cd157611ccc816123c8565b611d10565b8373ffffffffffffffffffffffffffffffffffffffff168573ffffffffffffffffffffffffffffffffffffffff1614611d0f57611d0e8582612411565b5b5b600073ffffffffffffffffffffffffffffffffffffffff168473ffffffffffffffffffffffffffffffffffffffff1603611d5257611d4d8161257e565b611d91565b8473ffffffffffffffffffffffffffffffffffffffff168473ffffffffffffffffffffffffffffffffffffffff1614611d9057611d8f848261264f565b5b5b5050505050565b50505050565b6000611dbf8473ffffffffffffffffffffffffffffffffffffffff166126ce565b15611f18578373ffffffffffffffffffffffffffffffffffffffff1663150b7a02611de8611322565b8786866040518563ffffffff1660e01b8152600401611e0a94939291906140a6565b6020604051808303816000875af1925050508015611e4657506040513d601f19601f82011682018060405250810190611e439190614107565b60015b611ec8573d8060008114611e76576040519150601f19603f3d011682016040523d82523d6000602084013e611e7b565b606091505b506000815103611ec0576040517f08c379a0000000000000000000000000000000000000000000000000000000008152600401611eb790613e6d565b60405180910390fd5b805181602001fd5b63150b7a0260e01b7bffffffffffffffffffffffffffffffffffffffffffffffffffffffff1916817bffffffffffffffffffffffffffffffffffffffffffffffffffffffff191614915050611f1d565b600190505b949350505050565b6060600b8054611f3490613201565b80601f0160208091040260200160405190810160405280929190818152602001828054611f6090613201565b8015611fad5780601f10611f8257610100808354040283529160200191611fad565b820191906000526020600020905b815481529060010190602001808311611f9057829003601f168201915b5050505050905090565b606060006001611fc6846126f1565b01905060008167ffffffffffffffff811115611fe557611fe4612d1b565b5b6040519080825280601f01601f1916602001820160405280156120175781602001600182028036833780820191505090505b509050600082602001820190505b60011561207a578080600190039150507f3031323334353637383961626364656600000000000000000000000000000000600a86061a8153600a858161206e5761206d614134565b5b04945060008503612025575b819350505050919050565b600073ffffffffffffffffffffffffffffffffffffffff168273ffffffffffffffffffffffffffffffffffffffff16036120f4576040517f08c379a00000000000000000000000000000000000000000000000000000000081526004016120eb906141af565b60405180910390fd5b6120fd81611aba565b1561213d576040517f08c379a00000000000000000000000000000000000000000000000000000000081526004016121349061421b565b60405180910390fd5b61214b600083836001611c3a565b61215481611aba565b15612194576040517f08c379a000000000000000000000000000000000000000000000000000000000815260040161218b9061421b565b60405180910390fd5b6001600360008473ffffffffffffffffffffffffffffffffffffffff1673ffffffffffffffffffffffffffffffffffffffff16815260200190815260200160002060008282540192505081905550816002600083815260200190815260200160002060006101000a81548173ffffffffffffffffffffffffffffffffffffffff021916908373ffffffffffffffffffffffffffffffffffffffff160217905550808273ffffffffffffffffffffffffffffffffffffffff16600073ffffffffffffffffffffffffffffffffffffffff167fddf252ad1be2c89b69c2b068fc378daa952ba7f163c4a11628f55a4df523b3ef60405160405180910390a461229e600083836001611d98565b5050565b60018111156123c257600073ffffffffffffffffffffffffffffffffffffffff168473ffffffffffffffffffffffffffffffffffffffff16146123365780600360008673ffffffffffffffffffffffffffffffffffffffff1673ffffffffffffffffffffffffffffffffffffffff168152602001908152602001600020600082825461232e919061423b565b925050819055505b600073ffffffffffffffffffffffffffffffffffffffff168373ffffffffffffffffffffffffffffffffffffffff16146123c15780600360008573ffffffffffffffffffffffffffffffffffffffff1673ffffffffffffffffffffffffffffffffffffffff16815260200190815260200160002060008282546123b99190613175565b925050819055505b5b50505050565b6008805490506009600083815260200190815260200160002081905550600881908060018154018082558091505060019003906000526020600020016000909190919091505550565b6000600161241e84610c83565b612428919061423b565b905060006007600084815260200190815260200160002054905081811461250d576000600660008673ffffffffffffffffffffffffffffffffffffffff1673ffffffffffffffffffffffffffffffffffffffff168152602001908152602001600020600084815260200190815260200160002054905080600660008773ffffffffffffffffffffffffffffffffffffffff1673ffffffffffffffffffffffffffffffffffffffff168152602001908152602001600020600084815260200190815260200160002081905550816007600083815260200190815260200160002081905550505b6007600084815260200190815260200160002060009055600660008573ffffffffffffffffffffffffffffffffffffffff1673ffffffffffffffffffffffffffffffffffffffff16815260200190815260200160002060008381526020019081526020016000206000905550505050565b60006001600880549050612592919061423b565b90506000600960008481526020019081526020016000205490506000600883815481106125c2576125c161347a565b5b9060005260206000200154905080600883815481106125e4576125e361347a565b5b9060005260206000200181905550816009600083815260200190815260200160002081905550600960008581526020019081526020016000206000905560088054806126335761263261426f565b5b6001900381819060005260206000200160009055905550505050565b600061265a83610c83565b905081600660008573ffffffffffffffffffffffffffffffffffffffff1673ffffffffffffffffffffffffffffffffffffffff168152602001908152602001600020600083815260200190815260200160002081905550806007600084815260200190815260200160002081905550505050565b6000808273ffffffffffffffffffffffffffffffffffffffff163b119050919050565b600080600090507a184f03e93ff9f4daa797ed6e38ed64bf6a1f010000000000000000831061274f577a184f03e93ff9f4daa797ed6e38ed64bf6a1f010000000000000000838161274557612744614134565b5b0492506040810190505b6d04ee2d6d415b85acef8100000000831061278c576d04ee2d6d415b85acef8100000000838161278257612781614134565b5b0492506020810190505b662386f26fc1000083106127bb57662386f26fc1000083816127b1576127b0614134565b5b0492506010810190505b6305f5e10083106127e4576305f5e10083816127da576127d9614134565b5b0492506008810190505b61271083106128095761271083816127ff576127fe614134565b5b0492506004810190505b6064831061282c576064838161282257612821614134565b5b0492506002810190505b600a831061283b576001810190505b80915050919050565b6000604051905090565b600080fd5b600080fd5b60007fffffffff0000000000000000000000000000000000000000000000000000000082169050919050565b61288d81612858565b811461289857600080fd5b50565b6000813590506128aa81612884565b92915050565b6000602082840312156128c6576128c561284e565b5b60006128d48482850161289b565b91505092915050565b60008115159050919050565b6128f2816128dd565b82525050565b600060208201905061290d60008301846128e9565b92915050565b6003811061292057600080fd5b50565b60008135905061293281612913565b92915050565b60006020828403121561294e5761294d61284e565b5b600061295c84828501612923565b91505092915050565b600081519050919050565b600082825260208201905092915050565b60005b8381101561299f578082015181840152602081019050612984565b60008484015250505050565b6000601f19601f8301169050919050565b60006129c782612965565b6129d18185612970565b93506129e1818560208601612981565b6129ea816129ab565b840191505092915050565b60006020820190508181036000830152612a0f81846129bc565b905092915050565b6000819050919050565b612a2a81612a17565b8114612a3557600080fd5b50565b600081359050612a4781612a21565b92915050565b600060208284031215612a6357612a6261284e565b5b6000612a7184828501612a38565b91505092915050565b600073ffffffffffffffffffffffffffffffffffffffff82169050919050565b6000612aa582612a7a565b9050919050565b612ab581612a9a565b82525050565b6000602082019050612ad06000830184612aac565b92915050565b612adf81612a9a565b8114612aea57600080fd5b50565b600081359050612afc81612ad6565b92915050565b60008060408385031215612b1957612b1861284e565b5b6000612b2785828601612aed565b9250506020612b3885828601612a38565b9150509250929050565b612b4b81612a17565b82525050565b6000602082019050612b666000830184612b42565b92915050565b600080600060608486031215612b8557612b8461284e565b5b6000612b9386828701612aed565b9350506020612ba486828701612aed565b9250506040612bb586828701612a38565b9150509250925092565b600060208284031215612bd557612bd461284e565b5b6000612be384828501612aed565b91505092915050565b600081519050919050565b600082825260208201905092915050565b6000819050602082019050919050565b612c2181612a17565b82525050565b6000612c338383612c18565b60208301905092915050565b6000602082019050919050565b6000612c5782612bec565b612c618185612bf7565b9350612c6c83612c08565b8060005b83811015612c9d578151612c848882612c27565b9750612c8f83612c3f565b925050600181019050612c70565b5085935050505092915050565b60006020820190508181036000830152612cc48184612c4c565b905092915050565b600060ff82169050919050565b612ce281612ccc565b82525050565b6000604082019050612cfd6000830185612cd9565b612d0a6020830184612b42565b9392505050565b600080fd5b600080fd5b7f4e487b7100000000000000000000000000000000000000000000000000000000600052604160045260246000fd5b612d53826129ab565b810181811067ffffffffffffffff82111715612d7257612d71612d1b565b5b80604052505050565b6000612d85612844565b9050612d918282612d4a565b919050565b600067ffffffffffffffff821115612db157612db0612d1b565b5b612dba826129ab565b9050602081019050919050565b82818337600083830152505050565b6000612de9612de484612d96565b612d7b565b905082815260208101848484011115612e0557612e04612d16565b5b612e10848285612dc7565b509392505050565b600082601f830112612e2d57612e2c612d11565b5b8135612e3d848260208601612dd6565b91505092915050565b600060208284031215612e5c57612e5b61284e565b5b600082013567ffffffffffffffff811115612e7a57612e79612853565b5b612e8684828501612e18565b91505092915050565b612e98816128dd565b8114612ea357600080fd5b50565b600081359050612eb581612e8f565b92915050565b60008060408385031215612ed257612ed161284e565b5b6000612ee085828601612aed565b9250506020612ef185828601612ea6565b9150509250929050565b600067ffffffffffffffff821115612f1657612f15612d1b565b5b612f1f826129ab565b9050602081019050919050565b6000612f3f612f3a84612efb565b612d7b565b905082815260208101848484011115612f5b57612f5a612d16565b5b612f66848285612dc7565b509392505050565b600082601f830112612f8357612f82612d11565b5b8135612f93848260208601612f2c565b91505092915050565b60008060008060808587031215612fb657612fb561284e565b5b6000612fc487828801612aed565b9450506020612fd587828801612aed565b9350506040612fe687828801612a38565b925050606085013567ffffffffffffffff81111561300757613006612853565b5b61301387828801612f6e565b91505092959194509250565b600080604083850312156130365761303561284e565b5b600061304485828601612aed565b925050602061305585828601612aed565b9150509250929050565b7f4379626572576f726c643a20496e636f727265637420616d6f756e74206f662060008201527f4554482073656e742e20506c656173652073656e6420302e303031204554482060208201527f746f206d696e7420796f7572204e46542e000000000000000000000000000000604082015250565b60006130e1605183612970565b91506130ec8261305f565b606082019050919050565b60006020820190508181036000830152613110816130d4565b9050919050565b7f4e487b7100000000000000000000000000000000000000000000000000000000600052602160045260246000fd5b7f4e487b7100000000000000000000000000000000000000000000000000000000600052601160045260246000fd5b600061318082612a17565b915061318b83612a17565b92508282019050808211156131a3576131a2613146565b5b92915050565b60006040820190506131be6000830185612aac565b6131cb6020830184612cd9565b9392505050565b7f4e487b7100000000000000000000000000000000000000000000000000000000600052602260045260246000fd5b6000600282049050600182168061321957607f821691505b60208210810361322c5761322b6131d2565b5b50919050565b7f4552433732313a20617070726f76616c20746f2063757272656e74206f776e6560008201527f7200000000000000000000000000000000000000000000000000000000000000602082015250565b600061328e602183612970565b915061329982613232565b604082019050919050565b600060208201905081810360008301526132bd81613281565b9050919050565b7f4552433732313a20617070726f76652063616c6c6572206973206e6f7420746f60008201527f6b656e206f776e6572206f7220617070726f76656420666f7220616c6c000000602082015250565b6000613320603d83612970565b915061332b826132c4565b604082019050919050565b6000602082019050818103600083015261334f81613313565b9050919050565b7f4552433732313a2063616c6c6572206973206e6f7420746f6b656e206f776e6560008201527f72206f7220617070726f76656400000000000000000000000000000000000000602082015250565b60006133b2602d83612970565b91506133bd82613356565b604082019050919050565b600060208201905081810360008301526133e1816133a5565b9050919050565b7f455243373231456e756d657261626c653a206f776e657220696e646578206f7560008201527f74206f6620626f756e6473000000000000000000000000000000000000000000602082015250565b6000613444602b83612970565b915061344f826133e8565b604082019050919050565b6000602082019050818103600083015261347381613437565b9050919050565b7f4e487b7100000000000000000000000000000000000000000000000000000000600052603260045260246000fd5b60006134b482612a17565b91507fffffffffffffffffffffffffffffffffffffffffffffffffffffffffffffffff82036134e6576134e5613146565b5b600182019050919050565b7f455243373231456e756d657261626c653a20676c6f62616c20696e646578206f60008201527f7574206f6620626f756e64730000000000000000000000000000000000000000602082015250565b600061354d602c83612970565b9150613558826134f1565b604082019050919050565b6000602082019050818103600083015261357c81613540565b9050919050565b60008190508160005260206000209050919050565b60006020601f8301049050919050565b600082821b905092915050565b6000600883026135e57fffffffffffffffffffffffffffffffffffffffffffffffffffffffffffffffff826135a8565b6135ef86836135a8565b95508019841693508086168417925050509392505050565b6000819050919050565b600061362c61362761362284612a17565b613607565b612a17565b9050919050565b6000819050919050565b61364683613611565b61365a61365282613633565b8484546135b5565b825550505050565b600090565b61366f613662565b61367a81848461363d565b505050565b5b8181101561369e57613693600082613667565b600181019050613680565b5050565b601f8211156136e3576136b481613583565b6136bd84613598565b810160208510156136cc578190505b6136e06136d885613598565b83018261367f565b50505b505050565b600082821c905092915050565b6000613706600019846008026136e8565b1980831691505092915050565b600061371f83836136f5565b9150826002028217905092915050565b61373882612965565b67ffffffffffffffff81111561375157613750612d1b565b5b61375b8254613201565b6137668282856136a2565b600060209050601f8311600181146137995760008415613787578287015190505b6137918582613713565b8655506137f9565b601f1984166137a786613583565b60005b828110156137cf578489015182556001820191506020850194506020810190506137aa565b868310156137ec57848901516137e8601f8916826136f5565b8355505b6001600288020188555050505b505050505050565b7f4552433732313a20696e76616c696420746f6b656e2049440000000000000000600082015250565b6000613837601883612970565b915061384282613801565b602082019050919050565b600060208201905081810360008301526138668161382a565b9050919050565b7f4552433732313a2061646472657373207a65726f206973206e6f74206120766160008201527f6c6964206f776e65720000000000000000000000000000000000000000000000602082015250565b60006138c9602983612970565b91506138d48261386d565b604082019050919050565b600060208201905081810360008301526138f8816138bc565b9050919050565b7f4552433732314d657461646174613a2055524920717565727920666f72206e6f60008201527f6e6578697374656e7420746f6b656e2e00000000000000000000000000000000602082015250565b600061395b603083612970565b9150613966826138ff565b604082019050919050565b6000602082019050818103600083015261398a8161394e565b9050919050565b7f4379626572576f726c643a20596f7520617265206e6f7420746865206f776e6560008201527f72206f662074686520746865204e465421000000000000000000000000000000602082015250565b60006139ed603183612970565b91506139f882613991565b604082019050919050565b60006020820190508181036000830152613a1c816139e0565b9050919050565b7f4379626572576f726c643a20496e636f727265637420616d6f756e74206f662060008201527f4554482073656e742e20557067726164696720796f757220636861726163746560208201527f7220636f73747320302e30303035204554480000000000000000000000000000604082015250565b6000613aa5605283612970565b9150613ab082613a23565b606082019050919050565b60006020820190508181036000830152613ad481613a98565b9050919050565b7f4379626572576f726c643a20596f752063616e206f6e6c79206c6576656c207560008201527f7020796f757220636861726163746572206f6e63652e00000000000000000000602082015250565b6000613b37603683612970565b9150613b4282613adb565b604082019050919050565b60006020820190508181036000830152613b6681613b2a565b9050919050565b7f4f776e61626c653a206e6577206f776e657220697320746865207a65726f206160008201527f6464726573730000000000000000000000000000000000000000000000000000602082015250565b6000613bc9602683612970565b9150613bd482613b6d565b604082019050919050565b60006020820190508181036000830152613bf881613bbc565b9050919050565b7f4552433732313a207472616e736665722066726f6d20696e636f72726563742060008201527f6f776e6572000000000000000000000000000000000000000000000000000000602082015250565b6000613c5b602583612970565b9150613c6682613bff565b604082019050919050565b60006020820190508181036000830152613c8a81613c4e565b9050919050565b7f4552433732313a207472616e7366657220746f20746865207a65726f2061646460008201527f7265737300000000000000000000000000000000000000000000000000000000602082015250565b6000613ced602483612970565b9150613cf882613c91565b604082019050919050565b60006020820190508181036000830152613d1c81613ce0565b9050919050565b7f4f776e61626c653a2063616c6c6572206973206e6f7420746865206f776e6572600082015250565b6000613d59602083612970565b9150613d6482613d23565b602082019050919050565b60006020820190508181036000830152613d8881613d4c565b9050919050565b7f4552433732313a20617070726f766520746f2063616c6c657200000000000000600082015250565b6000613dc5601983612970565b9150613dd082613d8f565b602082019050919050565b60006020820190508181036000830152613df481613db8565b9050919050565b7f4552433732313a207472616e7366657220746f206e6f6e20455243373231526560008201527f63656976657220696d706c656d656e7465720000000000000000000000000000602082015250565b6000613e57603283612970565b9150613e6282613dfb565b604082019050919050565b60006020820190508181036000830152613e8681613e4a565b9050919050565b600081905092915050565b6000613ea382612965565b613ead8185613e8d565b9350613ebd818560208601612981565b80840191505092915050565b7f2f00000000000000000000000000000000000000000000000000000000000000815250565b7f2e6a736f6e000000000000000000000000000000000000000000000000000000815250565b6000613f218285613e98565b9150613f2c82613ec9565b600182019150613f3c8284613e98565b9150613f4782613eef565b6005820191508190509392505050565b7f2f75706772616465645f00000000000000000000000000000000000000000000815250565b6000613f898285613e98565b9150613f9482613f57565b600a82019150613fa48284613e98565b9150613faf82613eef565b6005820191508190509392505050565b7f455243373231456e756d657261626c653a20636f6e736563757469766520747260008201527f616e7366657273206e6f7420737570706f727465640000000000000000000000602082015250565b600061401b603583612970565b915061402682613fbf565b604082019050919050565b6000602082019050818103600083015261404a8161400e565b9050919050565b600081519050919050565b600082825260208201905092915050565b600061407882614051565b614082818561405c565b9350614092818560208601612981565b61409b816129ab565b840191505092915050565b60006080820190506140bb6000830187612aac565b6140c86020830186612aac565b6140d56040830185612b42565b81810360608301526140e7818461406d565b905095945050505050565b60008151905061410181612884565b92915050565b60006020828403121561411d5761411c61284e565b5b600061412b848285016140f2565b91505092915050565b7f4e487b7100000000000000000000000000000000000000000000000000000000600052601260045260246000fd5b7f4552433732313a206d696e7420746f20746865207a65726f2061646472657373600082015250565b6000614199602083612970565b91506141a482614163565b602082019050919050565b600060208201905081810360008301526141c88161418c565b9050919050565b7f4552433732313a20746f6b656e20616c7265616479206d696e74656400000000600082015250565b6000614205601c83612970565b9150614210826141cf565b602082019050919050565b60006020820190508181036000830152614234816141f8565b9050919050565b600061424682612a17565b915061425183612a17565b925082820390508181111561426957614268613146565b5b92915050565b7f4e487b7100000000000000000000000000000000000000000000000000000000600052603160045260246000fdfea26469706673582212209eca35f69e363cf3421670c8362bc464c807e586eff9bf51072fe04ccecc9fdb64736f6c63430008110033",
  "linkReferences": {},
  "deployedLinkReferences": {}
}